:020000040800F2
:100000000050002041020008730200087502000839
:1000100077020008790200087B0200080000000057
:100020000000000000000000000000007D02000849
:100030007F0200080000000081020008830200081F
:100040008502000887020008890200088B02000868
:100050008D0200088F020008910200089302000838
:100060009502000897020008990200089B02000808
:100070009D0200089F020008A1020008A3020008D8
:10008000ED0B0008A7020008A9020008AB02000857
:10009000AD020008AF020008B1020008B302000878
:1000A000B5020008B7020008B9020008BB02000848
:1000B000E1080008BF020008C1020008390B00086F
:1000C000C5020008C7020008C9020008CB020008E8
:1000D000CD02000825030008D1020008D302000861
:1000E000D5020008D7020008D902000880B483B006
:1000F00000AF0346FB71084997F907305B09FA79AD
:1001000002F01F02012000FA02F241F8232000BF92
:100110000C37BD4680BC704700E100E080B5B4B04C
:1001200000AF00F071FA00F047FB00F08FFB1C20DD
:10013000FFF7DCFF4FF416413A4800F001F900F0F8
:100140009CF9394800F07EF900F0FAFB1F20FFF718
:10015000CDFF364800F076F900F046FC344800F058
:1001600071F9272387F8CE30324A07F1C8031068A7
:10017000186092889A80002387F8CF300DE097F8B6
:10018000CF305B0007F1D0021344FF2223F8D02CBC
:1001900097F8CF30013387F8CF3097F8CF30642B02
:1001A000EDD9254800F04EF943F2390000F06EF920
:1001B000214800F047F9002000F068F91E4800F0DF
:1001C00041F94FF0FF3000F061F91B4800F03AF9B7
:1001D000012000F05BF907F1C80297F8CE30032147
:1001E000184600F077FC97F8CE30EE21184600F064
:1001F0004DFC07F1C80297F8CE300321184600F0F5
:1002000069FC3A4697F8CE306421184600F062FC4B
:100210004FF4FA7000F036FB0D21084800F0EEFABA
:10022000F6E700BF00A24A046C0C0008840C00082A
:100230009C0C0008B80C0008B40C00080010014029
:1002400026482749274A002A05D00023C458CC5005
:1002500004339342FADB24482449254A002A05D076
:1002600000230024C45004339342FBDBFFF756FF06
:10027000FEE7FEE7FEE7FEE7FEE7FEE7FEE7FEE756
:10028000FEE7FEE7FEE7FEE7FEE7FEE7FEE7FEE746
:10029000FEE7FEE7FEE7FEE7FEE7FEE7FEE7FEE736
:1002A000FEE7FEE7FEE7FEE7FEE7FEE7FEE7FEE726
:1002B000FEE7FEE7FEE7FEE7FEE7FEE7FEE7FEE716
:1002C000FEE7FEE7FEE7FEE7FEE7FEE7FEE7FEE706
:1002D000FEE7FEE7FEE7FEE7FEE70000E80C0008A9
:1002E00000000020000000000000002008000020A6
:1002F0000800000080B483B000AF0346FB710849DA
:1003000097F907305B09FA7902F01F02012000FA21
:1003100002F241F8232000BF0C37BD4680BC704775
:1003200000E100E080B500AF034B9B88034800F07C
:1003300089F800BF80BD00BF00380140C00C000834
:1003400080B582B000AF78603960244A234B9B6946
:1003500043F480439361214A204B9B6943F004039B
:1003600093611F4A1E4B5B6843F0300353601C4A85
:100370001B4B5B6823F0C0035360194A184B5B6842
:1003800043F080035360164A154B5B6823F44073B7
:100390005360134A124B5B6823F440635360104A66
:1003A0000F4B5B6843F4806353600E497A683B6887
:1003B000B2FBF3F39BB20B810A4A0A4B9B899BB2B7
:1003C00043F4005343F02C039BB293812520FFF7A5
:1003D00091FF00BF0837BD4680BD00BF001002403E
:1003E000000801400038014080B400AF00BF084B56
:1003F0001B889BB203F02003002BF8D0044B9B8892
:100400009BB2C3F308031846BD4680BC704700BFCB
:100410000038014080B483B000AF7860084B7A6840
:1004200092B29A8000BF064B1B889BB203F08003F8
:10043000002BF8D000BF0C37BD4680BC704700BF12
:100440000038014080B584B000AF78600023FB73B2
:1004500009E0FB7B5A1CFA731A467B6813441B782D
:100460001846FFF7D7FFFB7B7A6813441B78002BF5
:10047000EFD100BF1037BD4680BD80B500AF024848
:10048000FFF7E0FF00BF80BDE00C00082DE9F04160
:100490008AB000AF78607868002803D13020FFF779
:1004A000B9FFA9E07868012803D13120FFF7B2FF36
:1004B000A2E0002087F827005148386234E097F81E
:1004C00027007E683D6AB6FBF5F5EDB207F1280618
:1004D000304400F8205C97F8270007F128052844ED
:1004E00010F8200C0546386A00FB05F07D68281AD4
:1004F000786097F8270097F8275007F128063544C9
:1005000015F8205C3035EDB207F12806304400F8CC
:10051000205C386A3B4DA5FB0050C008386297F854
:100520002700013087F8270078680028C7D197F89E
:10053000270007F128052844002500F8205C00204A
:1005400087F827000DE097F8270007F128052844D1
:1005500010F8200C302809D197F82700013087F8CF
:10056000270097F827000A28EDD900E000BF97F888
:100570002700C0F10B006D46A846451EBD6105462B
:100580004FF00006F20042EA5572E90002461146B9
:100590004FF00002D40044EA5174CB000346073305
:1005A000DB08DB00ADEB030D6B4600337B61002302
:1005B000FB770EE0FB7FF97F97F827200A4407F1CD
:1005C00028010A4412F8201C7A69D154FB7F0133B8
:1005D000FB77FA7F97F82730C3F10A039A42E9DDE7
:1005E00097F82730C3F10B037A690021D1547B6956
:1005F0001846FFF727FFC5462837BD46BDE8F081FE
:1006000000CA9A3BCDCCCCCC80B500AF00F01AF834
:1006100000F042F8094A094B5B6843F48063536079
:10062000074A074B1B6843F001031360034A034B5F
:100630005B6843F00203536000BF80BD00100240BE
:100640000020024080B483B000AF124A114B9B6976
:1006500043F0200393610F4A0E4B1B6843F4803331
:1006600013600023FB8008E00A4B1B6803F400338F
:10067000002B08D1FB880133FB80FB884FF6FF720B
:100680009342F1D100E000BF00BF0C37BD4680BCF3
:10069000704700BF0010024080B483B000AF154A1D
:1006A000144B5B6843F4E0135360124A114B5B68D0
:1006B00043F4803353600F4A0E4B1B6843F0807342
:1006C00013600023FB8008E00A4B1B6803F00073F3
:1006D000002B08D1FB880133FB80FB884FF6FF72AB
:1006E0009342F1D100E000BF00BF0C37BD4680BC93
:1006F000704700BF0010024080B483B000AF124AC0
:10070000114B9B6943F0400393610F4A0E4B1B6AE8
:1007100043F0010313620023FB8008E00A4B1B6ACD
:1007200003F00203002B08D1FB880133FB80FB8818
:100730004FF6FF729342F1D100E000BF00BF0C37CB
:10074000BD4680BC704700BF0010024080B400AFBF
:10075000104A104BDB6943F08053D3610D4A0D4BB7
:10076000DB6943F00063D3610B4A0B4B1B6843F416
:1007700080731360074A074B1B6A43F4807313624C
:10078000044A044B1B6A43F40043136200BFBD4696
:1007900080BC7047001002400070004080B400AF81
:1007A000044A044BDB6943F40003D36100BFBD4638
:1007B00080BC70470010024080B400AF0D4A0D4B62
:1007C0009B6943F0100393610B4A0B4B5B6823F466
:1007D00040135360084A084B5B6843F4401353606E
:1007E000054A054B5B6823F44003536000BFBD46D8
:1007F00080BC7047001002400010014080B487B0F8
:1008000000AF786039607B680C337B617B681033A4
:100810003B617B681433FB607B691A6801213B688C
:1008200001FA03F31340002B05D001223B689A40E4
:10083000FB681A6004E001223B689A403B691A6039
:1008400000BF1C37BD4680BC704700BF80B400AFFE
:100850000B4A0B4BDB6943F00103D3614FF080433C
:1008600001221A854FF0804348F6A0429A854FF046
:10087000804301229A8100BFBD4680BC704700BF03
:100880000010024080B483B000AF7860134B0022A8
:100890001A604FF0804300229A844FF080424FF05C
:1008A00080431B889BB243F001039BB2138000E09E
:1008B00030BF0A4B1A687B689A42F9D34FF08042E6
:1008C0004FF080431B889BB223F001039BB213803F
:1008D00000BF0C37BD4680BC704700BF0000002041
:1008E00080B400AF4FF080424FF080431B8A9BB230
:1008F00023F001039BB21382044B1B680133034AAC
:10090000136000BFBD4680BC704700BF00000020E0
:1009100080B483B000AF0346FB71084997F90730F4
:100920005B09FA7902F01F02012000FA02F241F895
:10093000232000BF0C37BD4680BC704700E100E0BB
:1009400080B400AF254A254BDB6943F40013D36123
:10095000224A224B9B6943F008039361204A204BB3
:100960001B6843F0007313601D4A1D4B1B6843F066
:10097000006313601A4A1A4B1B6843F0005313605C
:10098000174A174B1B6843F000431360154A154B79
:100990009B889BB243F400739BB29380114A114B26
:1009A0009B889BB243F024039BB293800D4A0D4B6E
:1009B0009B8B9BB243F0B4039BB29383094B2522DC
:1009C0001A84084A074B1B889BB243F001039BB271
:1009D000138000BFBD4680BC704700BF00100240BE
:1009E000000C01400054004080B500AF184A184B7D
:1009F0005B6943F001035361164B174A9A60154A2D
:100A0000144B1B6843F440531360124A114B1B688C
:100A100043F0100313600F4A0E4B1B6843F0800332
:100A200013600C4A0B4B1B6843F480731360094A34
:100A3000084B1B6843F480631360064A054B1B6830
:100A400043F00A0313601020FFF762FF00BF80BD70
:100A5000001002406C0002401054004080B483B08B
:100A600000AF78603960084A7B68D360064A3B680B
:100A70005360054A044B1B6843F00103136000BF39
:100A80000C37BD4680BC70476C00024080B582B018
:100A900000AF03460A46FB711346BB7100F03CF8F9
:100AA000FB795B00DAB2084B1A70084ABB79137005
:100AB000074A074B1B889BB243F480739BB2138099
:100AC00000BF0837BD4680BD04000020050000209F
:100AD0000054004080B584B000AF0346B9607A602E
:100AE000FB7300F019F8FB7B5B00DAB2084B1A705D
:100AF000B9687868FFF7B2FF064A064B1B889BB2BD
:100B000043F480739BB2138000BF1037BD4680BD95
:100B1000040000200054004080B400AF00BF054B2B
:100B20001B8B9BB203F00203002BF8D100BFBD4624
:100B300080BC70470054004080B483B000AF0023F5
:100B4000FB8002E0FB880133FB80FB8840F2FE2241
:100B50009342F7D9214B9B8A9BB203F00103002BF0
:100B600005D01E4B1E4A127892B21A8232E01B4BFD
:100B70009B8A9BB203F00203002B1BD0174B1B8BED
:100B80009BB203F00403002B14D0164B1B6803F038
:100B90000103002B08D0114A104B9B889BB243F4F1
:100BA00000639BB2938015E00C4B0F4A127892B20F
:100BB0001A820FE0094B9B8A9BB203F00403002BBF
:100BC00008D0064A054B1B889BB243F400739BB2C6
:100BD000138000BF0C37BD4680BC704700540040F6
:100BE000040000206C0002400500002080B400AF2B
:100BF0001B4B1B6803F40003002B06D0184A184B4C
:100C00005B6843F40003536026E0154B1B6803F454
:100C10000013002B14D0124A114B5B6843F40013ED
:100C20005360104A0F4B9B889BB223F400639BB226
:100C300093800D4A0C4B1B6823F0010313600BE0FB
:100C4000074B1B6803F40013002B05D0044A044B28
:100C50005B6843F480135360BD4680BC704700BF9F
:100C600000000240005400406C0002400A0D555341
:100C700041525420696E697469616C697A65642EA9
:100C80002E2E00000A0D49324320696E6974696195
:100C90006C697A65642E2E2E000000000A0D444D0A
:100CA0004120696E697469616C697A65642E2E2EC3
:100CB000000000000A0D0000FF00FF00FF00000020
:100CC0000A0D555341525420747269676765726505
:100CD0006420616E20696E746572727570740000B4
:080CE0001B5B324A000000001A
:0400000508000000EF
:00000001FF
